:020000040800F2
:100000009804002005010008F71C0008071B0008E1
:10001000F51C0008B90A00082D20000800000000A7
:10002000000000000000000000000000FB1C0008B1
:10003000BB0A000800000000F91C0008FD1C0008B5
:100040001F0100081F0100081F0100081F01000810
:100050001F0100081F0100081F0100081F01000800
:100060001F010008BD0A0008C30A00081F0100089C
:100070001F0100081F0100081F0100081F010008E0
:100080001F0100081F0100081F0100081F010008D0
:100090001F01000800000000000000001F01000810
:1000A0000000000000000000000000000000000050
:1000B0001F0100081F010008000000001F010008C8
:1000C0001F01000800000000000000001F010008E0
:1000D000000000001F0100081F01000800000000D0
:1000E0001F0100081F0100081F010008DFF810D0E1
:1000F00000F066FC00480047992D0008AFF300802F
:10010000980400200648804706480047FEE7FEE7BF
:10011000FEE7FEE7FEE7FEE7FEE7FEE7FEE7FEE7B7
:100120000F1F0008ED000008202A04DB203A21FA06
:1001300002F00021704721FA02F3D040C2F1200200
:100140009140084319467047D2B201E000F8012BF4
:10015000491EFBD270470022F6E710B513460A4647
:1001600004461946FFF7F0FF204610BDF0B480EAC0
:100170000102D40F4200B2EB410F02D20246084600
:1001800011464A0042D0C30DDDB2C1F3C752AD1AC9
:10019000202D35DAC1F3160141F4000204B15242B8
:1001A000C5F1200602FA06F12A411044B3EBD05FF4
:1001B00023D0C4B1012DA0EBC35009DCF0BC4FF03B
:1001C000004202EAC352DBB200F5000000F08ABA36
:1001D000400000F1807000EBC350A0F1807040EA55
:1001E000D170490009E0490841EAC071A0EBC35051
:1001F00000F50000400800EBC350F0BC00F069BA05
:100200006142012202EB4101001BF6E7F0BC70479E
:1002100081F00041AAE780F00040A7E780EA0102F0
:1002200010B502F00043400022D04A001FD0010E5A
:1002300001EB1261C0F35600C2F3560240F4000015
:1002400042F40002A0FB022000047F39140400D015
:10025000401C50EA124001D44000491EC2B20C06B4
:1002600004EBD010401C4008802A02D003E000209C
:1002700010BD20F00100002900DA0020184310BD55
:1002800030B480EA010202F0004530F0004221F073
:10029000004013D090B1C30DD40DC2F31601C0F3CA
:1002A0001600E41A41F4000140F400027D3491424A
:1002B00001D3641C00E04900002C02DA30BC0020AD
:1002C00070474FF400000023914201D3891A034381
:1002D00040084FEA4101F7D151B1914202D14FF0AC
:1002E000004105E002D24FF0010101E06FF0010191
:1002F00003EBC450284430BC00F0EBB9420005D0F9
:10030000C0F3C7525242914201DC0020704700EB1B
:10031000C15070472DE9FE4F804681EA0300C00FAF
:100320000C46009021F0004123F00045B8EB02009C
:10033000A94105D24046214690461C460B4602463E
:1003400023F00040104347D0270DC7F30A00C3F342
:100350000A510290401A019040286BDAC3F313004F
:1003600040F4801B0098924620B10023D2EB030A90
:1003700063EB0B0B01985946C0F14002504600F068
:1003800087F906460D4650465946019A00F08FF906
:1003900010EB08006141002487EA115284EAE773F8
:1003A0001A4340D0009A62B3019A012A4FEA0752D9
:1003B00015DC001B61EB02014FF0004202EA07521C
:1003C000CDE90042001C41F5801132462B4600F079
:1003D000C6F903B0BDE8F08F40462146F9E7001B9F
:1003E00061EB0201001C41F5801300185B412018ED
:1003F000A2F5001747EB030140EAD570B6196D412D
:1004000011E06D084FEA360645EAC0754FEA07521B
:10041000001B61EB0201001C41F5801149084FEA05
:1004200030000019514132462B4603B0BDE8F04F71
:1004300000F086B90098012240000023D0EB0202B0
:1004400063EBE073009821464FEAE074B8EB0000DC
:1004500061EB0401E9E783F000435BE781F00041D1
:1004600058E72DE9F04D81EA030404F0004B21F038
:10047000004514464FF0000A23F0004150EA0502FF
:1004800020D054EA01021DD0C5F30A570246C5F335
:100490001303C1F31300C1F30A5640F4801543F46B
:1004A0008013A7EB0608101BD64608F2FD3873EB45
:1004B000050002D308F1010801E092185B41B8F190
:1004C000000F03DA00200146BDE8F08D00204FF454
:1004D0008011064684460EE0171B73EB050705D313
:1004E000121B63EB050306434CEA010C49084FEA73
:1004F000300092185B4150EA0107EDD152EA030047
:1005000012D082EA040083EA0501084305D0101BDB
:10051000AB4106D20122002306E000224FF0004347
:1005200002E06FF0010253101AEB06004CEB085189
:1005300010EB0A0041EB0B01BDE8F04D00F000B9F3
:1005400096230022114600F0CDB820F00040C10DE6
:10055000C0F3160040F400007F2901DA0020704744
:10056000962903DCC1F19601C8407047963988404E
:100570007047C1F30A5210B5C1F3130140F2FF33C3
:1005800041F480119A4201DA002010BD40F2334359
:100590009A42A2F2334203DC5242FFF7C5FD10BD7E
:1005A000904010BD00F0004230F000400AD0C10D74
:1005B00001F56071C0F3160042EA0151C20840071C
:1005C0001143704700200146704701F0004330B4EA
:1005D00021F0004150EA010206D00A0DA2F5607236
:1005E000C1F31301002A02DC30BC00207047440F25
:1005F00044EAC104C100E01830BC00EBC25000F076
:1006000068B830B50B46014600202022012409E0DD
:1006100021FA02F59D4205D303FA02F5491B04FABB
:1006200002F52844151EA2F10102F1DC30BD2DE9CE
:10063000F05F0546002092469B4688460646814666
:1006400040241BE02846414647462246FFF76CFD02
:1006500053465A46C01A914110D3114618462246B5
:1006600000F016F82D1A67EB01084F4622460120CC
:10067000002100F00DF817EB00094E41201EA4F1F7
:100680000104DFDC484631462A464346BDE8F09F78
:10069000202A04DB203A00FA02F100207047914042
:1006A000C2F1200320FA03F3194390407047202A37
:1006B00006DBCB17203A41FA02F043EAE07306E08A
:1006C00041FA02F3D040C2F120029140084319469A
:1006D00070470029A8BF7047401C490008BF20F0A0
:1006E0000100704710B4B0FA80FC00FA0CF050EA38
:1006F000010404BF10BC704749B1CCF1200421FAB9
:1007000004F411FA0CF118BF012121430843A3EBB3
:100710000C01CB1D4FEA00614FEA102042BF0020C0
:1007200010BC704700EBC35010440029A4BF10BC9C
:100730007047401C490008BF20F0010010BC704702
:1007400010B5141E73F1000408DA401C41F10001D9
:1007500092185B411A4301D120F0010010BD2DE930
:10076000F04D92469B4611B1B1FA81F202E0B0FA27
:1007700080F220329046FFF78BFF04460F4640EA96
:100780000A0041EA0B0153465A46084313D011466A
:1007900053EA010019D0C8F140025046FFF7C4FCEB
:1007A00005460E46504659464246FFF771FF08433C
:1007B00005D0012004E020463946BDE8F08D002038
:1007C000054346EAE0762C4337430A986305E40A7A
:1007D000A0EB08000022FD0A44EA47540A3002D583
:1007E00000200146E9E7010510196941DDE90845E6
:1007F00000196941BDE8F04DA2E72DE9FE4F81EAFD
:10080000030404F0004421F0004100944FF0000B79
:1008100023F0004350EA01045ED052EA03045BD0A7
:10082000C3F30A54C1F30A552C44A4F2F3340194DF
:10083000A0FB0254C1F3130141F48011C3F313036D
:1008400043F4801301FB024400FB034E840A970A21
:1008500044EA815447EA8357A4FB076802958D0A4E
:1008600005FB07854FEA932C04FB0C542705029DDA
:100870004FEA065847EA1637B5EB08056EEB070C4A
:10088000870E920E47EA811742EA8312A7FB020104
:10089000B6EB0B0164EB00042B0D43EA0C335E183E
:1008A00044EB1C50DA465146E7FB0201C5F3130442
:1008B0004FEA0B3343EA14534FEA0432019C43EAF4
:1008C0000603A4F10C040294009CCDE900B4FFF7E8
:1008D00046FF03B0BDE8F08F00200146F9E770B590
:1008E00021F0004303430CD0C1F30A550024D5EB9B
:1008F000040564EB0403D617AD1AB34102DB0020F4
:10090000014670BD201841EB025170BD0EB5C10FFC
:1009100080EAE0700844CA07002140F233438DE8C2
:100920000E000A460B46FFF71AFF03B000BDC1F3E5
:100930000A52C1F3130140F2FF3341F480119A428D
:1009400002DA00200146704740F233439A42A2F295
:10095000334202DC5242FFF7E7BBFFF799BE0000CB
:1009600030B5041E71F1000404DB4FF00044404236
:1009700064EB0101141E73F1000405DB1C464FF00B
:100980000043524263EB04038B4208BF824230BDF6
:1009900030B5041E71F1000404DB4FF00044404206
:1009A00064EB0101141E73F1000405DB1C464FF0DB
:1009B0000043524263EB0403994208BF904230BDAA
:1009C000064C074D06E0E06840F0010394E807009C
:1009D00098471034AC42F6D3FFF78CFB8031000807
:1009E000A031000870B5044600688168C943C90792
:1009F00017D1816821F00101816000F0B9FB054643
:100A00000AE000BF00F0B4FB401B022804D92068B4
:100A10008068C043C00706D020688068C043C00714
:100A2000F0D0002070BDA06A40F01000A062E06A23
:100A300040F00100E062012070BD0000F8B5002622
:100A40000446009600688168C943C9072DD08168B3
:100A500041F001018160164816490068B0FBF1F0D1
:100A600000E0401E00900028FBD100F081FB05460D
:100A700016E000BF00F07CFB401B022810D9206864
:100A80008068C043C0070BD0A06A40F01000A0628D
:100A9000E06A40F00100E06284F824600120F8BDC3
:100AA00020688068C043C007E4D10020F8BD000082
:100AB0001400002040420F00FEE77047082000F0BD
:100AC00061BA102000F05EBA72B6FEE7F8B50024F5
:100AD000009490F824202546012A12D0012280F8A3
:100AE00024204A681F23072A0DD20668776B521EFE
:100AF00002EB820293409F430B6893401F4377634E
:100B000019E00220F8BD06680D2A0AD2376BD21F01
:100B100002EB820293409F430B6893401F4337636D
:100B200009E0F76A0D3A02EB820293409F430B689B
:100B300093401F43F7620A68072306680A2A0AD30C
:100B4000F7680A3A02EB420293409F438B68934056
:100B50001F43F76008E0376902EB420293409F436E
:100B60008B6893401F4337610A68102A01D0112A0D
:100B700020D1124B02689A4217D193681B0219D4F4
:100B8000936843F4000393600968102912D10C495B
:100B90000C4A0968B1FBF2F101EB8101490000E068
:100BA000491E00910029FBD104E0816A41F0200137
:100BB0008162012480F824502046F8BD00240140C1
:100BC0001400002040420F00806A70470068C06C2B
:100BD000704700002DE9F0414FF0000704003D464A
:100BE0007ED0A06A002628B9E66284F824602046F8
:100BF00000F07EF82046FFF7F5FEA16AC90600D492
:100C000020B1A06A40F01000A06269E0A16A21F45E
:100C1000885141F00201A1626268E169237B0A43C5
:100C200047EA43010A43A1684FF48077B94209D0EB
:100C3000012907D05FF0000194F814C0BCF1010F46
:100C400002D00AE03946F7E7F3B1A36A43F0200384
:100C5000A362E36A43F00103E3622368D3F804C0AC
:100C60002CF4694C4CEA010CC3F804C021688B6871
:100C7000DFF870C003EA0C0313438B60A168B9422C
:100C80000BD0012909D00CE0DFF85CC0A3690CEBA4
:100C900043330B4343F40061DFE7218A0D05A5F5DB
:100CA00080152168CB6A23F470032B43CB62216843
:100CB00089680E4B1940914208D1E662A16A21F081
:100CC000020141F00101A162BDE8F081A06A20F0BB
:100CD000020040F01000A062E06A40F00100E06213
:100CE0000120F1E7FDF7E1FF00E0FFFFFE0E1FFF2F
:100CF00000B585B000210091019102910391006837
:100D00000E49884218D10E48816941F40071816111
:100D1000816901F400710491816941F004018161EC
:100D20008069694600F004000490012000900320CF
:100D30000190044800F032F905B000BD00240140E4
:100D400000100240000801402DE9F84300270D463D
:100D50000446009700F00CFA804620688168C905B7
:100D600008D5A06A40F02000A06284F82470012019
:100D7000BDE8F8834168C90503D4C06A10F4700F58
:100D80002AD0022000F092FA3B490968B1FBF0F644
:100D90002068036939490B424FEA61014FEAA11209
:100DA0001FD1C3684FEA611C13EA0C0F19D1036904
:100DB0000B4225D1C068104222D1142023E0681CC8
:100DC0000AD02DB100F0D4F9A0EB0800A84203D955
:100DD00020680068800725D5206800688007EED568
:100DE0002DE003690B4202D1C168114206D00269AD
:100DF00023490A4206D1C068084203D1542002E0C8
:100E0000292000E0FC204643009816E0681C11D021
:100E10002DB100F0ADF9A0EB0800A8420AD9009866
:100E2000B04207D2A06A40F00400A06284F82470A7
:100E300003209DE70098401C0090B042E6D3216853
:100E40006FF012000860A06A40F40070A062206891
:100E50008068C0F3424007280CD1207B50B9A06ABB
:100E600020F48070A062A06AC00403D4A06A40F09D
:100E70000100A06200207BE7140000202449922496
:100E80004992240010B5044690F8240001280DD0A2
:100E9000012084F824002046FFF7D0FD01004FF028
:100EA000000005D084F82400084610BD022010BDC3
:100EB000A26A40F201239A4342F48072A262A26ABB
:100EC00022F48012A262226853685B0505D5A36AEA
:100ED00023F4005343F48053A362A36ADB0404D5D4
:100EE000E36A23F00603E36200E0E06284F8240092
:100EF0006FF00200106020688268C2F34242072A45
:100F0000826803D042F480128260CDE742F4A002EE
:100F1000FAE7000070B5044600F02AF90546601CA7
:100F200002D004480078044400F022F9401BA0429B
:100F3000FAD370BD0800002010B50F4904460828F8
:100F400002D0102C15D10CE0087840B100200870B8
:100F500078B101221102094800F005F909E00120E9
:100F6000F5E748780322401CB0FBF2F302FB1300C4
:100F700048700348046010BD0000002000080140D4
:100F800014040140044910B50A68024202D0086006
:100F9000FFF7D2FF10BD0000140401402DE9F84F07
:100FA000DFF89C91002409F1040A0AF1040B23469E
:100FB0000F270BF1040EBBE00125A5402A40AA42F1
:100FC00076D1DFF880C14E68A6EB0C0866452BD0C1
:100FD0000DDC032E34D005DC36B3012E19D0022EE1
:100FE0002FD11BE0112E16D0122E2AD119E0B8F500
:100FF000881F19D006DCB8F5803F15D0B8F5801FE2
:101000001FD111E0B8F5001F0ED0B8F5041F18D19C
:101010000AE0CB6815E0CB681B1D12E0CB680833F3
:101020000FE0CB680C330CE08B682BB1012B4FF039
:10103000080303D0456104E0042302E0056100E0F9
:101040000023FF2A01D8064601E000F104064FEA1A
:10105000840501D9A5F12005D6F8008007FA05FC22
:1010600028EA0C0803FA05F548EA0508C6F80080E6
:101070004D68ED005BD5344DAE6946F00106AE61BA
:10108000AD6924F0030605F0010500952F4D06EB30
:10109000050CDCF80850A607360F07FA06F825EA13
:1010A0000805DFF8AC80404503D14FF0000810E0A0
:1010B0003DE0DFF8A080404502D14FF0010808E094
:1010C000DFF89480404502D14FF0020801E04FF074
:1010D000030808FA06F848EA0508CCF808804D68C5
:1010E000D9F80060ED034D4601D5164300E0964364
:1010F0002E604D68DAF80060AD03554601D5164301
:1011000000E096432E604D68DBF80060ED025D461E
:1011100001D5164300E096432E604D68DEF800606E
:10112000AD02754601D5164300E096432E60641C5F
:101130000A6832FA04F57FF43FAFBDE8F88F00008B
:1011400000040140000011100010024000000140A6
:1011500000080140000C0140001001408068084078
:1011600000D0012070470AB1016170470904FBE714
:10117000014880687047000008000020024881682C
:10118000027811448160704708000020074810B5BC
:10119000016841F010010160032000F075F80020A3
:1011A00000F006F800F024F8002010BD00200240F6
:1011B00070B50D4D04464FF47A712878B1FBF0F00C
:1011C0000A490968B1FBF0F000F0C6FB48B9102CE1
:1011D00007D200222146501E00F036F800206C6035
:1011E00070BD012070BD0000080000201400002028
:1011F0000C4808B5816941F001018161816901F004
:1012000001010091C16941F08051C161C06900F0E4
:10121000805000900448416821F0E06141F0007185
:10122000416008BD0010024000000140002809DBB9
:1012300000F01F02012191404009800000F1E020F0
:10124000C0F8001170470000F0B40E4B1B680C464C
:10125000C3F30223C3F10705042D00D90425191D8A
:10126000072901D2002300E0DB1E012606FA05F162
:10127000491E214099409E40761E16403143F0BCE5
:1012800000F0E6BE0CED00E0064900F00702086839
:101290004FF6FF03184040EA0220034A104308605B
:1012A000704700000CED00E00000FA0510B529A41D
:1012B00001461DCC86B08DE81D002AA02A4C00688E
:1012C00004900020012923D002293AD010291DD1F1
:1012D00061682268D20119D5C1F38342C9031DF8A0
:1012E000020009D5616804AAC1F34041515C1F4A5C
:1012F000B2FBF1F1484301E01D49484361684902EE
:1013000004D440005FF00301B0FBF1F006B010BD63
:10131000226AC2F30121012903D1920701D5C80332
:10132000F4E7022905D1626A920702D549F64040E6
:10133000ECE70329EAD121688903E7D54FF224407D
:10134000E4E700F033F96168C1F38131491C4900D9
:10135000DAE7000002030405060708090A0B0C0D72
:101360000E0F1010010200000010024000127A005F
:1013700000093D002DE9F84305460078354CC007CB
:1013800054D0E0690026C00008D4E06940F08050E5
:10139000E061E069012600F0805000902E4801686D
:1013A000C90512D40168804641F480710160FFF7DD
:1013B000DFFE074605E000BFFFF7DAFEC01B64282A
:1013C00023D8D8F80000C005F6D5206A10F4407084
:1013D00021D0A98801F4407181421CD0206A1F49A4
:1013E000012220F440700A6000220A602062C007D7
:1013F00011D0FFF7BDFE074641F2883808E000BF74
:10140000FFF7B6FEC11B414502D90320BDE8F883B2
:10141000206A8007F4D5206A696820F44070084388
:1014200020621EB1E06920F08050E06128788007DA
:1014300005D56068A96820F44040084360602878BA
:10144000C00605D56068E96820F480000843606044
:101450000020DBE7001002400070004040044242E0
:101460002DE9F0470F46050061D0434E306800F08B
:101470000700B84209D2306820F0070038433060D6
:10148000306800F00700B84251D128683B4C810712
:1014900012D5400703D5606840F4E06060602878AA
:1014A000000703D5606840F4605060606068A96818
:1014B00020F0F000084360602878C00728D06868F2
:1014C000012810D02168022810D0890700292EDABF
:1014D000616821F0030101436160FFF749FE804626
:1014E00041F288390DE021688903EFE78901EDE7D2
:1014F000FFF73EFEA0EB0801494502D90320BDE8F5
:10150000F0876068696800F00C00B0EB810FEFD1E4
:10151000306800F00700B8420BD9306820F00700AF
:1015200038433060306800F00700B84201D0012035
:10153000E5E72878400705D56068E96820F4E060B1
:10154000084360602878000706D56068296920F4A0
:10155000605040EAC100606000F038F86168084AF5
:10156000C1F30311515CC840064908600648006891
:10157000FFF71EFE0020C2E70020024000100240DC
:1015800024310008140000200C0000200448054904
:1015900000684968044AC1F30221515CC8407047A1
:1015A00014000020001002403431000804480549AE
:1015B00000684968044AC1F3C221515CC8407047C1
:1015C00014000020001002403431000812A185B040
:1015D0000FC98DE80F0014A0144A006804905168E8
:1015E000134801F00C03042B10D0082B0ED1C1F3CB
:1015F0008343C9031DF803000AD5516804AAC1F347
:101600004041515C0A4A5043B0FBF1F005B07047CD
:1016100008494843FAE700000203040506070809E1
:101620000A0B0C0D0E0F10100102000000100240FA
:1016300000127A0000093D002DE9F84F040070D037
:101640002078C04DC00749D06868C0F381000128E8
:1016500007D06868C0F38100022809D16868C00318
:1016600006D52868800339D560680028E7D035E0C2
:101670006068B0F5803F0BD010B1B0F5A02F11D04D
:10168000286820F480302860286820F4802002E058
:10169000286840F480302860606890B1FFF768FDEA
:1016A00006460AE0286840F480202860F0E700BF82
:1016B000FFF75EFD801B642873D828688003F7D588
:1016C0000CE0FFF755FD064605E000BFFFF750FDB3
:1016D000801B6428F0D828688003F7D420789A4EBD
:1016E00080074FF001094FF0000839D5686810F005
:1016F0000C0F07D06868C0F38100022809D1686820
:10170000C00306D42868800714D52069012808D1B1
:1017100010E02069B0B1C6F80090FFF729FD074638
:1017200005E00AE1FFF724FDC01B0228C4D82868A1
:101730008007F7D52868616920F0F80040EAC10009
:1017400028600DE0C6F80080FFF712FD074604E0B0
:10175000FFF70EFDC01B022823D828688007F7D4A6
:10176000207800072CD57948A169D9B1C0F800903C
:10177000FFF7FEFC074604E0FFF7FAFCC01B022857
:101780000FD8686A8007F7D571484FF4FA5100689E
:10179000B0FBF1F0009000BF0098411E0091FAD21A
:1017A0000EE080E0C0F80080FFF7E2FC074604E0AE
:1017B000FFF7DEFCC01B022875D8686A8007F7D4E3
:1017C0002078400760D5E8690027C00008D4E869A0
:1017D00040F08050E861E869012700F080500090F7
:1017E0005C480168C90513D40168834641F48071DF
:1017F0000160FFF7BDFC824606E000BFFFF7B8FCC2
:10180000A0EB0A0064284ED8DBF80000C005F5D52F
:10181000E06801280AD008B1052813D0286A20F012
:1018200001002862286A20F0040002E0286A40F0E3
:1018300001002862E06841F2883B98B1FFF798FC0C
:1018400082460BE0286A40F004002862EEE700BF01
:10185000FFF78EFCA0EB0A0159455AD8286A800789
:10186000F6D50CE0FFF784FC824605E0FFF780FC2C
:10187000A0EB0A0159454CD8286A8007F6D41FB15D
:10188000E86920F08050E861E06988B36968C1F3D5
:101890008101022944D00228C6F8608004D0FFF7F5
:1018A00067FC044638E034E0FFF762FC074604E0DA
:1018B000FFF75EFCC01B02282BD828688001F7D4F4
:1018C000206AB0F5803F05D16868A16820F4003037
:1018D00008436860D4E908010843696821F4741179
:1018E00008436860C6F86090FFF742FC044606E0D3
:1018F00025E000BFFFF73CFC001B022809D8286840
:101900008001F7D51BE000BFFFF732FC001B022867
:1019100002D90320BDE8F88F28688001F4D40EE0D6
:101920000128F7D06868226A00F48031914204D11E
:10193000616A00F47010884201D00120EAE70020BB
:10194000E8E70000001002400000424280044242EA
:10195000140000200070004010B5401EB0F1807FE0
:1019600001D3012010BD4FF0E02460610F2160170A
:1019700000F06EFB0020A06107202061002010BD58
:1019800070B5040004D094F83D00002510B106E0C5
:10199000012070BD84F83C50204600F023F824203C
:1019A00084F83D002068C16821F40051C1602046E0
:1019B00000F0AEFA2068016921F4904101612068CD
:1019C000416921F02A0141612068C16841F4005158
:1019D000C1602564202084F83D0084F83E0000208A
:1019E00070BD000030B585B00024009401940294CD
:1019F000039400681449884224D11448816941F451
:101A000080418161816901F480410491816941F0E3
:101A10000401816180690E4D00F0040004904FF4D0
:101A20000070009002200190032003906946284630
:101A3000FFF7B4FA2815CDE9000469462846029458
:101A4000FFF7ACFA05B030BD00380140001002408D
:101A5000000801402DE9F843044690F83D001F4678
:101A600016460D4620284CD1C5B1BEB194F83C00B5
:101A7000012846D0012084F83C004FF00008C4F84B
:101A80004080212084F83D00FFF772FBA684814648
:101A9000E684A068B0F5805F03D004E00120BDE8D3
:101AA000F883206928B12E465FF0000584F83C8059
:101AB0000EE00026FAE78021204600F085FAA0B962
:101AC000AEB116F8010B21684860E08C401EE0843E
:101AD000E08C4B464FF0000200970028EBD14FF00E
:101AE0004001204600F070FA30B10320D7E735F806
:101AF000020BC0F30800E6E7202084F83D00002038
:101B0000CDE70220CBE7FEE710B5044600F072FFF8
:101B10000C48012C0BD0022C0CD0032C0DD0042C23
:101B20000ED100228021BDE81040FFF71CBB00222F
:101B30001021F8E700222021F5E700224021F2E7FA
:101B400010BD0000000C014001460B48012909D0DE
:101B500002290AD003290BD004290CD101228021AB
:101B6000FFF701BB01221021FAE701222021F7E74C
:101B700001224021F4E77047000C01403EB50024EB
:101B800010480094019402940D498460016004732C
:101B90000475012505614FF460214460C161FFF7C0
:101BA00019F808B1FEF790FFCDE9004569460548F0
:101BB0000294FEF78BFF002801D0FEF785FF3EBDA3
:101BC00000240140200000202DE9F04385B00024CE
:101BD00036480094019402940394816941F02001F5
:101BE0008161816901F020010491816941F0040162
:101BF0008161816901F004010491816941F008016A
:101C000081618069DFF8A88000F008004FF4F07669
:101C10000490002231464046FFF7A5FADFF8949081
:101C20004FF6F077002239464846FFF79CFA062027
:101C3000CDE90004694640460294FFF7AFF91E4D16
:101C40000820CDE90005694602944046FFF7A6F951
:101C50001020CDE900050125694640460295FFF7B1
:101C60009DF9CDE900650226CDE902466946404668
:101C7000FFF794F900970396CDE901546946484669
:101C8000FFF78CF9002211460920FFF7DDFA092041
:101C9000FFF7CCFA002211460A20FFF7D5FA0A20F6
:101CA000FFF7C4FA05B0BDE8F08300000010024061
:101CB00000080140000C0140000021100C4810B544
:101CC0000A4901604FF4E1314160002181600C223A
:101CD000C160C0E904128161C161FFF751FE0028B3
:101CE00003D0BDE81040FEF7EFBE10BD0038014044
:101CF00050000020FEE7FEE7704770472DE9F047EF
:101D0000484E494DDFF824A1DFF82491DFF8248103
:101D1000FFF734FAFFF72CFA6421B0FBF1F201FB74
:101D2000120000287BD14448FFF7ACF8012142485B
:101D3000FFF70AF84048FEF747FF80056FD53E4899
:101D4000FEF744FF84B22046FEF7FAFB2946FEF771
:101D500065FA6FF00B01FEF7D1FA0546FEF722FC9B
:101D600002460B46214635A000F062F9384F0421A7
:101D70003846FFF7F3F9374CC0B129463648FEF72D
:101D800047FA4146FEF77CFA3449FEF747FAFEF778
:101D900009FC334A334BFEF7BDFAFEF716FC206010
:101DA000FEF700FC02460B462FA034E00221384625
:101DB000FFF7D4F9002832D031462846FEF760FA02
:101DC0004FF07E51FEF724FA01464846FEF758FAD6
:101DD0005146FEF755FAFEF7E5FB00F02FFE002214
:101DE000254BFEF73EFB4FF04042244BFEF792FAA4
:101DF00002460B4600202249FEF733FB4FF0C0425B
:101E0000204BFEF728FBFEF7E0FB2060FEF7CAFB45
:101E100002460B461CA0BDE8F04700F009B9BDE83A
:101E2000F087000079E9263FA4704D4000301D4640
:101E300000404E4501066841200000204144433ADD
:101E4000202534642C2025382E3666200000000022
:101E5000000801400400002017B62141E9FE03C438
:101E600054E3A59BC46E764053393031332C202582
:101E7000382E36660D0A000000DCAE408D916B3FB7
:101E80000000F03F66127140204E5443202C202564
:101E9000382E36660D0A000030B593B0282168460A
:101EA000FEF759F914210AA8FEF755F9002501207B
:101EB0000F9510951195010412958DE8230004905B
:101EC0000005CDE90810022407946846FFF7B4FB2B
:101ED00008B172B6FEE70AA90F2081E831004FF47D
:101EE0008060CDE90D0501210AA8FFF7B9FA08B114
:101EF00072B6FEE74FF4804011900F940FA8FFF7E1
:101F000039FA002801D072B6FEE713B030BD704731
:101F100070B5044600680169E26821F4405111433C
:101F200001612169A0680843616908432168CA68A2
:101F300041F20C639A430243CA6020684169A26976
:101F400021F44071114341611E492068884202D149
:101F5000FFF72CFB01E0FFF719FB00EBC00101EBE1
:101F60000012606864218000B2FBF0F3B3FBF1F370
:101F70006FF018067343B2FBF0F5B2FBF0F605EB19
:101F80008305322303EB0515B5FBF1F5B6FBF1F63E
:101F900005F0F00505EB0615B2FBF0F6B2FBF0F02C
:101FA000B0FBF1F06FF01802504306EB800003EB3A
:101FB0000010B0FBF1F0216800F00F0028448860A9
:101FC00070BD0000003801402DE9F04198461746E9
:101FD0000E460446069D1DE0681C1BD02DB1FFF780
:101FE000C7F8A0EB0800A84214D92068C16821F402
:101FF000D071C1602068416921F001014161202058
:1020000084F83D0084F83E00002084F83C00032062
:10201000BDE8F0812068006836EA000004D00020A6
:10202000B842D9D00020F3E70120F9E7FEE700002D
:102030000FB4054B10B503A9044A029800F056F9F5
:1020400010BC5DF814FB00001D2A000818000020D9
:102050000907090E002804DB00F1E02080F80014D5
:10206000704700F00F0000F1E02080F8141D704769
:102070002DE9F0414F1E00EBC7010446D1E90001F4
:1020800015461E4637F006020DD02A463346FEF7A7
:10209000B4FB7F1E04EBC703D3E90023FEF73AF934
:1020A00037F00602F1D1022F25D0042F13D0062FCE
:1020B00018BFBDE8F0812A463346FEF79EFBD4E9FF
:1020C0000A23FEF727F92A463346FEF796FBD4E9A2
:1020D0000823FEF71FF92A463346FEF78EFBD4E9A4
:1020E0000623FEF717F92A463346FEF786FBD4E9A6
:1020F0000423FEF70FF92A463346FEF77EFBD4E9A8
:102100000223FEF707F92A463346FEF776FBD4E9A9
:102110000023BDE8F041FEF7FDB8000000221346A1
:1021200010460149FEF79DB90000F03F0122FEF77D
:10213000D6BB0022134610461146FEF792B902E0C4
:1021400008C8121F08C1002AFAD170477047002042
:1021500001E001C1121F002AFBD17047014908604C
:10216000704700001C0000202DE9FF5F82B00021B5
:10217000DDE90430020DDDF840B0034318D044F629
:102180001050A2F2FF3242431514119801281FD0BB
:10219000A5EB0B00401C5FEA000A4FF000064E4F13
:1021A000DFF83891B046504615D5CAF1000413E067
:1021B000119801244AA3012801D16FEA0B0102986A
:1021C000119AC0E90031C0E9024206B0BDE8F09FB3
:1021D000CBF10000DFE704460021404A491842EBFA
:1021E0000450CDE9001012E0E00707D032463B462C
:1021F00040464946FEF701FB8046894632463B464B
:1022000010461946FEF7F9FA06460F466410002CF0
:10221000EAD1DDE90401DDE90023BAF1000F06DAB5
:10222000FEF7EBFA42464B46FEF7E7FA05E0FEF70B
:1022300018F942464B46FEF714F904460E460022B2
:10224000284BFEF7A5FB03D84FF0FF30014607E00F
:102250000022254B20463146FEF75CF8FEF767FB6F
:10226000102409E0002C0ADB0A220023FEF7DFF924
:10227000039B30321A55641E50EA0102F2D1641CED
:10228000039AC4F111031444119A012A03D00122C4
:1022900008430DD10AE0084304D000204FF0110B91
:1022A000119072E7A3EB0B056D1E0DE05B4504DD9D
:1022B0004FF0000205F1010504E003DA4FF00002DF
:1022C000A5F10105002AECD002981199C0E902316C
:1022D000C0E9004579E70000000014400000F03F2D
:1022E000300000000000F0430000E03F2DE9FF4F08
:1022F00095B09A46884606460025EEE1252877D116
:1023000000242746F94A0121039400E0044316F80B
:10231000013F203B01FA03F01042F7D130782A2820
:1023200011D06FF02F033078A0F13002092A16D8AF
:10233000039A44F0020402EB820203EB42021044CF
:10234000761C0390EFE758F8042B0392002A03DA77
:10235000504244F40054039044F00204761C307858
:102360002E2816D116F8010F44F004042A280DD0A7
:102370006FF02F023078A0F13003092B09D807EB5A
:10238000870302EB4303C718761CF3E758F8047B76
:10239000761C30786C280FD006DC4C2817D06828C3
:1023A0000DD06A2814D104E0742810D07A280FD1F7
:1023B0000DE044F400140AE044F4801401E044F415
:1023C00040147278824202D104F58014761C761C87
:1023D000307866280BD013DC582877D009DC002829
:1023E00075D04528F6D04628F4D047281AD193E175
:1023F00018E0632835D0642879D0652812D18BE1A4
:10240000702873D008DC6728F1D069286FD06E2857
:102410000DD06F2806D1ACE073282CD0752874D06D
:10242000782853D05246179990476D1C54E1C4F355
:102430000250022809D003280DD0D8F80010042833
:102440000DD00D6008F1040846E1D8F80010EA1735
:10245000C1E90052F6E7D8F800100D80F2E70D70E0
:10246000F0E718F8041B8DF8001000208DF801002B
:10247000EB46012003E058F804BB4FF0FF30610742
:102480004FF0000102D40DE009F101018946B94283
:102490000FDA8145F8DB1BF809100029F4D108E0B8
:1024A00009F1010189468142FADB1BF80910002974
:1024B000F6D103985346A0EB090721463846179AF0
:1024C00000F080FA284400EB090507E044E008E149
:1024D0000DE01BF8010B524617999047B9F101091D
:1024E000F7D2534621463846179AF2E039E00A21DE
:1024F000C4F302524FF0000B0091022A06D058F8A4
:10250000040BC117032A09D00AE023E008F10700F1
:1025100020F00702F2E80201904605E000B2C11780
:10252000042A01D140B2C117002906DA0A46002167
:10253000404261EB02012D2202E0220504D52B224C
:102540008DF80420012203E0E20701D02022F7E702
:10255000914657E00A2100E010214FF0000B009156
:102560000BE010214FF0000B44F004040827009109
:1025700003E008204FF0000B0090C4F30252022A3F
:1025800005D058F8040B0021032A08D008E008F110
:10259000070020F00702F2E80201904603E080B253
:1025A000042A00D1C0B24FF0000922072AD53278A0
:1025B000702A07D0DDF800C08CF0100C5CEA0B0C20
:1025C00005D00EE040228DF80420012208E050EAF8
:1025D000010306D030238DF804308DF80520022247
:1025E0009146009B83F0080353EA0B030AD150EA9B
:1025F000010201D1620705D530228DF804204FF089
:1026000001097F1E3278582A04D039A20C920CAAF4
:1026100002920BE03BA2F9E75B46009AFEF707F84F
:102620000C9B9B5C029A521E0292137050EA0102AC
:10263000F2D1029804A9081A00F1200B600702D514
:1026400024F4803400E001275F4502DDA7EB0B0096
:1026500000E0002000EB0B01009003984944401A71
:102660000390E00306D453462146179A039800F0DE
:10267000A9F90544002706E001A85246C05D179954
:1026800090476D1C7F1C4F45F6DBE0030CD553468D
:102690002146179A039800F095F9054404E030208C
:1026A0005246179990476D1C0099481E00900029CA
:1026B000F5DC08E00298029952460078491C029124
:1026C000179990476D1CBBF10001ABF1010BF1DCD8
:1026D0005BE100F065F90544761C307800287FF452
:1026E0000DAE19B02846BDE8F08F000009280100A2
:1026F0003031323334353637383961626364656678
:102700000000000030313233343536373839414239
:102710004344454600000000600700D4062708F146
:10272000070020F00700F0E80223804603F0004C89
:102730005FEA0C0001D097A009E0200501D596A022
:1027400005E0E00701D095A001E0AFF24C00139046
:10275000307823F0004365280CD006DC452809D0EA
:1027600046281DD047287FD13BE0662818D067282F
:102770007AD136E00021112F01DB112000E0781C16
:10278000CDE9000104A90CA8FFF7EEFCDDE90D017D
:102790000C9A4FF0000B07F10109109200914EE0E6
:1027A0004FF000400097CDE9011004A90CA8FFF7F5
:1027B000DBFCDDE90D020C9B0F994FF0000B9146FD
:1027C0001093009211B9791C00EB0109B7EB0900D5
:1027D00003D4C0F1FF3B07F10109A9EB0700019009
:1027E00042E0012F00DA01270021112F01DD112025
:1027F00000E03846CDE9000104A90CA8FFF7B4FCBD
:10280000DDE90D010C9A00914FF0000BB9461092D2
:1028100021070FD4009A4A4503DA914601E0A9F155
:102820000109B9F1010F05DD109AA9F10101515C0F
:102830003029F4D0B84202DA10F1040F03DA012192
:10284000CDE9011010E0002803DC8344A9EB00016E
:1028500002E0411C494500DD8946A0EB0B00401C0D
:1028600001904FF000400290200705D401984845A0
:1028700002DB4FF0FF30019000208DF84B000298F2
:102880000DF14B07B0F1004F25D002200C902B200A
:102890000D90029800280CDA404202902D200D90F5
:1028A00007E00A210298FDF7ACFE3031029007F8EC
:1028B000011D0C99481E0C900029F2DC029800289A
:1028C000EFD1791E0D980870307800F0200040F0AC
:1028D000450007F8020D11A8C01BC01D02901398F7
:1028E000007800B1012000EB0901019801EBE071D3
:1028F000029801440398401A401E0390E00306D456
:1029000053462146179A039800F05CF80544139843
:10291000007818B15246179990476D1CE00323D5F3
:1029200053462146179A039800F04CF805441BE0E3
:10293000BBF1000F07DB0098584504DD109817998C
:1029400010F80B0001E0179930205246904701988B
:102950000BF1010B401E05F10105019004D12E2061
:102960005246179990476D1CB9F10001A9F1010970
:10297000DEDC05E017F8010B5246179990476D1CF5
:102980000299481E02900029F4DC53462146179A0A
:1029900003989EE62D0000002B00000020000000A0
:1029A0002DE9F041044600251E461746880404D44C
:1029B00005E039462020B0476D1C641EF9D5284635
:1029C000BDE8F0812DE9F041044600251E46904601
:1029D000C80301D5302700E02027880404D505E08E
:1029E00041463846B0476D1C641EF9D52846BDE8FF
:1029F000F081000070B5074D074E0024002235F825
:102A000014103046FEF7AFFB641CE4B2082CF5D37B
:102A100070BD000014310008000C014038B50446B8
:102A20008DF800004FF47A73012269460248FFF7DF
:102A300011F8204638BD0000500000202DE9F04D6F
:102A4000C84A002490B0914205DA21F00043934235
:102A500001D805D120B110B0BDE8F04DFFF766BB3D
:102A6000B1F5801F1BDA53EA000209D0002911DA00
:102A70000120FFF773FB10B0BDE8F04DFFF759BB25
:102A80000220FFF76BFBFFF749FB10B081F000411C
:102A9000BDE8F08D6FF035043622FDF720FF04EB22
:102AA0002152C1F31308B049A2F2FF33414401F4AB
:102AB000801282F07F6103EB225281F0405100923C
:102AC00041EA08010022A94BFDF7C5FC044608F1C4
:102AD0000200A74EC0F313000D467E44032867D2C0
:102AE000D6E900232046FDF73BFF1ED100980028C1
:102AF00002BFD6E9000110B0BDE8F08DFDF706FF7A
:102B000007460C469B4A9C4BFDF777FE06460D4652
:102B10009A4A9B4B38462146FDF76FFE10B032466D
:102B20002B46BDE8F04DFDF7F5BB4FF05532954B08
:102B300020462946FDF761FE0022934BFDF78EFCEF
:102B400006460F4622462B4610461946FDF755FE0F
:102B500032463B46FDF751FE064600980F46F0B15F
:102B6000FDF7D4FE80468A46824A834BFDF745FE38
:102B700032463B46FDF772FC22462B46FDF76BFCC6
:102B800005460C467D4A7E4B40465146FDF735FED4
:102B900010B02A462346BDE8F04DFDF75CBC0B465D
:102BA00010B0324620462946BDE8F04DFDF753BC33
:102BB00000224FF080432046FDF7ACFB02460B4657
:102BC00020462946FDF74DFC06460F460098FDF7C6
:102BD0009DFECDE9040132463B4610463946FDF7DD
:102BE0000CFE0C9069480C9A4044019009910B46E8
:102BF0001046FDF702FE8246024665488B46C8F144
:102C000051080B4608F5D72803217844FFF730FA1E
:102C100052465B46FDF7F1FD0A905E480D91524623
:102C20005B4604217844FFF723FA099B0C9AFDF7D1
:102C3000E4FD844601980D9B40EA080860460A9A24
:102C4000FDF768FB83460891B8F1000F4EDD4FF0A9
:102C5000FF3220462946FDF742FE22462B46FDF76D
:102C6000CCFD804600988A4660B3DDE90401414A04
:102C7000414BFDF7C2FD099100905A46404651462E
:102C8000089BFDF747FB32463B46FDF7B6FD099B27
:102C9000009AFDF73FFB42465346FDF7DFFB224615
:102CA0002B46FDF7D8FB04460D46DDE90401334A07
:102CB000334BFDF7A2FD10B022462B46BDE8F04D88
:102CC000FDF7C9BB5A464046089BFDF723FB324639
:102CD0003B46FDF792FD42465346FDF7BFFB10B061
:102CE00022462B46BDE8F04DFDF7B8BB009840B337
:102CF000DDE904011F4A204BFDF77FFD80468A462F
:102D00005A4620462946089BFDF7A5FB32463B461E
:102D1000FDF773FD42465346FDF79DFB22462B46C9
:102D2000FDF799FB04460D46DDE90401134A144BF7
:102D3000FDF763FD10B022462B46BDE8F04DFDF7D0
:102D40008ABB0B465A4620462946FDF784FB32468D
:102D50003B46FDF752FD10B022462B46BDE8F04D34
:102D6000FDF77CBB0000F07F645F09000000F03FCE
:102D70009A060000763C7935EF39EA3D0000E0FE26
:102D8000422EE63F5555D53F0000E03F86EBF9FF68
:102D90003205000030050000FEF7F8F9FFF77CF877
:102DA000FEF712FFFEF7EAFEFEF788FF00F096F846
:102DB00000F0F2F8FCE72DE9FF5F9B46DDE90E50DD
:102DC0000C2D00D20C250024C0F38018C0F300178E
:102DD000C0F380064FF00C0900F0010A15E04246EE
:102DE0000120009900F03EF83A460220019900F0D7
:102DF00039F832460320029900F034F85246594619
:102E0000042000F02FF8641CA4B2B5FBF9F0A04236
:102E1000E5D8BDE8FF9F2DE9FC414FF47A71B0FB86
:102E2000F1F464230A26B0FBF3F1B1FBF6F506FBDF
:102E30001515B0FBF3F103FB1101B0FBF6F7B1FB85
:102E4000F6F1CDE9003206FB170030303031C3B265
:102E5000CAB230353034E9B2E0B2FFF7ACFFBDE8BA
:102E6000FC8100002DE9F0478246A1F13000914637
:102E7000092801D8C5B204E02D2929D0432925D03D
:102E80000C2514490024C5EBC500DFF84C8046181A
:102E900001F15C07325D37F814104046FEF763F924
:102EA000641CE4B2072CF5D34A464FF40041404677
:102EB000FEF759F95046FEF747FE0320FEF72AF8C1
:102EC0005046FEF721FE2846BDE8F0870A25D8E7E0
:102ED0000B25D6E7B8300008000C01407CB564250E
:102EE00000242022CDE90054312311461046FFF77B
:102EF00062FFCDE900542021392331220846FFF733
:102F00005AFFCDE900543523392231212020FFF723
:102F100052FFCDE900543023352239213120FFF70B
:102F20004AFFCDE9005430231A4635213920FFF7F6
:102F300042FFCDE900543523302211461846FFF7F1
:102F40003AFFCDE900543021332335220846FFF7FC
:102F500032FFCDE900542023332235213020FFF702
:102F60002AFFCDE9005420231A4633213520FFF7EC
:102F700022FF2023CDE900541A4619463320FFF7DB
:102F80001AFFA8002023CDE900041A461946184666
:102F9000FFF711FF7CBD00002DE9FC5F3F4D40496C
:102FA0006E683046FDF73AF94FF08441FDF7DEF8E0
:102FB00082463C493046FDF7D9F8DFF8ECB0DFF83F
:102FC000EC80DFF8EC900090687820B1012804D004
:102FD000022805D103E0344602E0544600E0009C9C
:102FE000642741468C420EDD59462046FDF716F90E
:102FF000FDF7D8FA00222F4BFDF78CF9FDF7B9FA4F
:1030000080B204220CE05C4514DD2046FDF706F991
:103010004FF07C51FDF7AAF8FDF797FA80B2102225
:103020003946FFF7F8FE687878B1012815D00228F4
:1030300023D126E000202D23CDE900701A46194641
:103040001846FFF7B8FEBDE8FC9F012220214F463D
:103050004846FEF788F8002206E0002220214F466D
:103060004846FEF780F8012240213846FEF77BF8FB
:10307000002280213846FEF776F828780028A3D170
:10308000E1E7002220214F464846FEF76CF8002277
:1030900040213846FEF767F80122EAE700000020E9
:1030A0006666E63F33938843000020410000C84233
:1030B000000801400000E03F0101010101010000A2
:1030C00001010000000001010001010001010101F6
:1030D00001000001000101000001010100010100E7
:1030E00001010100010101010101010100000000D5
:1030F00001010101010101010101010001010100C2
:1031000000010101000000000000000100000000BB
:103110000000000000010002000400080010002070
:1031200000400080000000000000000001020304D5
:103130000607080900000000010203040000000067
:1031400004FA97999999D93FAF788E1DC571CC3FF4
:103150009FC678D0099AC33F935555555555E53FBD
:10316000599322942449D23FDE03CB966446C73F4D
:1031700044523EDF12F1C23F000000000000000098
:10318000A031000800000020200000003E210008BF
:10319000C031000820000020780400004E21000803
:1031A000000000000000000001000000100000000E
:1031B000000000000024F4000000000000000000F7
:04000005080000ED02
:00000001FF
